:1000000003C100000C94F9090C94CE090C94A309C7
:100010000C9478090C944D090C9422090C94F7085F
:100020000C94CC0822C1000020C100001EC10000B9
:100030001CC100001AC1000018C1000016C1000058
:1000400014C100000C94AB0A10C100000EC10000E6
:100050000CC100000AC1000008C100000C94820815
:1000600004C1000002C1000000C10000FEC0000089
:10007000FCC00000FAC00000F8C00000F6C000009C
:100080000C947E0AF2C00000F0C00000EEC0000038
:10009000ECC00000EAC00000E8C00000E6C00000BC
:1000A000E4C00000E2C000000C94510ADEC0000071
:1000B000DCC00000DAC00000D8C000000C94240AA4
:1000C000D4C00000D2C00000D0C00000CEC00000EC
:1000D000CCC00000CAC00000C8C00000C6C00000FC
:1000E000C4C0000000002100240027002A002D00C9
:1000F0003000330001010000040107010A01000083
:100100002200250028002B002E00310034000201BF
:100110000000050108010B0100002000230026005B
:1001200029002C002F00320000010000030106010D
:10013000090105050505070508080808020202026D
:100140000A0A080804040404010101010101010173
:100150000303030303030303040707070C0C0C0C3E
:100160000C0C0C0C02020202060606060606060627
:100170000B0B0B0B0B0B0B0B0102102020080810B4
:100180002040102040800201020108040201010207
:1001900004081020408080402010080402018004E0
:1001A000020180402010080402010804020101023B
:1001B0000408102040800102040810204080000044
:1001C0000A0B02090C0D0E080703040100000000D1
:1001D000000000000000000000000000000000001F
:1001E00000000000000000000000121110000000DC
:1001F00000000000000000000000000000000000FF
:1002000000000000B40EA00F11241FBECFEFD1E2FA
:10021000DEBFCDBF00E00CBF13E0A0E0B2E0ECE930
:10022000F4E200E00BBF02C007900D92A83DB107B9
:10023000D9F725E0A8EDB3E001C01D92AB36B207B7
:10024000E1F711E0C3E0D1E000E006C02197010929
:10025000802FFE010E941B10C230D10780E00807EA
:10026000A9F70E94D80A0C943D12CACE96E0899F45
:10027000D0011124A052BB4F90967C936E935F9750
:1002800091E091969C939197E0914D05F0914E05E8
:1002900090914C05992339F0309751F0811108C0A5
:1002A0008091FC041994309719F05C968C91FACFE8
:1002B0000895AF92BF92CF92DF92EF92FF920F9389
:1002C0001F93CF93DF936C017B018B01040F151FEC
:1002D000EB015E01AE18BF08C017D10759F0699154
:1002E000D601ED91FC910190F081E02DC6011995A8
:1002F000892B79F7C501DF91CF911F910F91FF9065
:10030000EF90DF90CF90BF90AF900895FC014481B3
:100310005581608171818FE495E0CBCF815082312E
:1003200008F05AC0E82FF0E08827E656FE4F8F4FBE
:100330000C941B10BA01BE01AC01B201B601EC0174
:10034000C101C701CB01D101D501D901DF01E30111
:10035000EC01E701ED01F101809180008F7780933E
:1003600080000895809180008F7DF9CF809180007A
:10037000877FF5CF84B58F7784BD089584B58F7D51
:10038000FBCF8091B0008F778093B000089580916B
:10039000B0008F7DF9CF809190008F77809390008F
:1003A0000895809190008F7DF9CF80919000877F94
:1003B000F5CF8091A0008F778093A0000895809161
:1003C000A0008F7DF9CF8091A000877FF5CF80912D
:1003D00020018F77809320010895809120018F7DE7
:1003E000F9CF80912001877FF5CFCF93DF93282F1E
:1003F00030E0F901E254FE4F8491F901E858FE4FD4
:10040000D491F901EE5CFE4FC491CC2399F0811197
:1004100085DFEC2FF0E0EE0FFF1FE85EFE4FA591A9
:10042000B491EC91ED2381E090E009F480E0DF915C
:10043000CF91089580E090E0FACF862FD6CF1F931A
:10044000CF93DF93282F30E0F901E254FE4F8491DF
:10045000F901E858FE4FD491F901EE5CFE4FC491CA
:10046000CC23A1F0162F811159DFEC2FF0E0EE0F15
:10047000FF1FE250FF4FA591B4918FB7F894EC9114
:10048000111108C0D095DE23DC938FBFDF91CF918F
:100490001F910895DE2BF8CF862F642FD0CFCF93F6
:1004A000DF9390E0FC01E858FE4F24918E5C9E4F54
:1004B000FC0184918823C9F090E0880F991FFC010A
:1004C000EC51FF4FA591B491FC01E250FF4FC59153
:1004D000D49161110DC09FB7F8948C91209582231F
:1004E0008C938881282328839FBFDF91CF91089523
:1004F000623051F49FB7F8943C91822F809583230A
:100500008C93E8812E2BEFCF8FB7F894EC912E2BA4
:100510002C938FBFEACF862F642FC1CF3FB7F894BB
:100520008091E9039091EA03A091EB03B091EC0371
:1005300026B5A89B05C02F3F19F00196A11DB11D3E
:100540003FBFBA2FA92F982F8827BC01CD01620F7A
:10055000711D811D911D42E0660F771F881F991F35
:100560004A95D1F708958F929F92AF92BF92CF9202
:10057000DF92EF92FF924B015C01D0DF6B017C01B7
:10058000CDDF6C197D098E099F09683E7340810596
:100590009105B0F321E0821A9108A108B10888EE14
:1005A000C80E83E0D81EE11CF11C81149104A10443
:1005B000B10431F7FF90EF90DF90CF90BF90AF90F4
:1005C0009F908F9008952FB7F8946091E5037091F4
:1005D000E6038091E7039091E8032FBF08950F93FE
:1005E0001F93CF93DF93C82FD62F86E0C89FF001CB
:1005F0001124E052FB4F11A2878D90A1813091050B
:10060000E1F058F082309105D1F1039709F43CC034
:10061000DF91CF911F910F9108956623C9F361E097
:1006200070E08C2F23DECFDF60933805709339059F
:1006300080933A0590933B05EBCFC5DF00913805D9
:100640001091390520913A0530913B05AB01BC0171
:10065000401B510B620B730B80914A0590914B0527
:10066000B0E0A0E084179507A607B70740F462E062
:1006700070E08C2FDF91CF911F910F91F7CD63E048
:1006800070E0D111C5CFF5CF70E060E0F2CF6F928E
:100690007F928F929F92AF92BF92CF92DF92EF9212
:1006A000FF920F931F93CF93DF9381E080934C05CC
:1006B0008ADF00913C0510913D0520913E05309167
:1006C0003F05AB01BC01401B510B620B730B8091CA
:1006D000480590914905B0E0A0E084179507A6076A
:1006E000B70708F00CC1C0E080914605C81758F460
:1006F000E0914205F0914305EC0FF11D62E080812D
:10070000CEDECF5FF1CF712C812C912C54018394DC
:1007100080914705781608F05AC0072D10E0E09147
:100720004405F0914505E00FF11F61E08081B7DEDF
:10073000E0914405F0914505E00FF11F60E08081F4
:100740007EDED501C401072C04C0880F991FAA1FA3
:10075000BB1F0A94D2F76C017C01E094F094612CE9
:10076000809146056816F0F4C62DD0E0E091420570
:10077000F0914305EC0FFD1F808137DE2496CC0FEE
:10078000DD1FC052DB4F892B41F4888199818C2970
:100790009D29998388836394E3CF888199818E21F1
:1007A0009F21F7CFE0914405F0914505E00FF11F3F
:1007B00061E0808144DE8091440590914505080FF9
:1007C000191F60E0F80180816ADE7394A1CFC0EE4A
:1007D000D4E0FE018FEF9FEF278D30A1232B21F472
:1007E000148E968F858F11A2369625E0EC31F20794
:1007F00099F7F12C96E0D92E80914605F81608F06D
:100800004FC0E12C0F2D10E0000F111F08511B4F9E
:1008100020914705E21608F041C0F801608171811E
:100820000E2C02C0769567950A94E2F7F29E90012D
:1008300011242E0D311DE0EEF4E080E0458D568D43
:100840002417350709F45FC08F5F36968A30B1F7F9
:1008500060FF22C0E0EEF4E090E080E0448D4111C2
:1008600016C0E0914005F0914105E20FF31F408171
:10087000D89EF001D99EF00D1124E052FB4F448F19
:10088000368F258F10A2178E61E0A9DE05C0019674
:1008900036968A30910511F7E394BACFF394ACCF32
:1008A00010E089A18111182F2696F5E0CC31DF07E1
:1008B000C1F789DE60933C0570933D0580933E054A
:1008C00090933F051123D9F0809101058823B9F059
:1008D0008091FF0490910005019789F48091FC04B8
:1008E000DF91CF911F910F91FF90EF90DF90CF900C
:1008F000BF90AF909F908F907F906F9008951092CF
:100900004C0580E0EDCF6170C0CF0895DC01EC9123
:10091000E03390F511968C91119728E830E0281B70
:10092000310987FD3395220F331F220F331F6217C2
:10093000730784F012968C9128E532E0281B310968
:1009400087FD3395220F331F220F331F6217730762
:100950000CF49B0122503109220F331F4FB7F8943A
:100960008E2F90E0FC01EE0FFF1FE80FF91FE351FF
:10097000FC4F328321834FBF08958130910581F46C
:100980001092800082E08093810010928500109286
:100990008400B19A80916F00826080936F00089507
:1009A0008230910569F41092900082E0809391006A
:1009B000109295001092940088BB80937100089566
:1009C0008330910569F41092A00082E08093A10029
:1009D0001092A5001092A40089BB80937200089524
:1009E000892B61F41092200182E080932101109202
:1009F0002501109224018ABB809373000895AF9261
:100A0000BF92CF92DF92EF92FF920F931F93CF93FB
:100A1000DF936B017A01EC01C052DC4F28813CE08E
:100A2000389F8001399F100D1124A090DF03B12C55
:100A300027FF1FC0FB011182108288818F5F88838E
:100A400088819801280F311D87FD3A95F6012A15F6
:100A50003B051CF488818C30BCF180819181049627
:100A600080349C4908F471C0F6018081918104961C
:100A70006EC088819801280F311D87FD3A952A158F
:100A80003B05DCF68881A801480F511D87FD5A956A
:100A9000FA01EE0FFF1FE40FF51FE351FC4F8081B9
:100AA00086FFCBCF8881F801E80FF11D87FDFA950D
:100AB000CF01EE0FFF1FE80FF91FE351FC4F8081BC
:100AC00060E08F73BCDCB9CF808191812881A8015F
:100AD000420F511D27FD5A959A01FA01EE0FFF1F93
:100AE000E20FF31FE351FC4F21813281820F931FEC
:100AF000F7019183808388819801280F311D87FD3C
:100B00003A95F901EE0FFF1FE20FF31FE351FC4F7F
:100B1000808186FF21C08881080F111D87FD1A95ED
:100B2000F801EE0FFF1FE00FF11FE351FC4F808132
:100B300061E08F73DF91CF911F910F91FF90EF9044
:100B4000DF90CF90BF90AF907ACC80E49CE9F70122
:100B5000918380838FEF8883DF91CF911F910F91D5
:100B6000FF90EF90DF90CF90BF90AF9008950895E1
:100B700090E080E008958F929F92AF92BF920F9382
:100B80001F93CF93DF93CDB7DEB7A1970FB6F8943D
:100B9000DEBF0FBECDBF19A2423008F44AE08E017D
:100BA0000F5D1F4F842E912CB12CA12CA501940117
:100BB0000E94ED0FE62FB901CA01EA303CF5E05D75
:100BC000D801EE938D01232B242B252B79F790E070
:100BD00080E0109761F0FD0101900020E9F7319766
:100BE000AF014A1B5B0BBD018FE495E062DBA19670
:100BF0000FB6F894DEBF0FBECDBFDF91CF911F912E
:100C00000F91BF90AF909F908F900895E95CD8CFDF
:100C1000FC0101900020E9F73197AF01481B590B07
:100C2000BC018FE495E045CBFC0180819181009768
:100C300011F00C94BF100895CF93DF93EC0160E0A6
:100C40008E81FDDB61E08E81FADB60E08E81F7DB77
:100C50008BE891E00197F1F7DF91CF910895CF9262
:100C6000DF92EF92FF920F931F93CF93DF936C016C
:100C70007C0187E0E80EF11CD0E0C0E0062F10E018
:100C8000B8010C2E02C0759567950A94E2F7617061
:100C9000F70181917F01D3DB2196C430D10581F723
:100CA000C601DF91CF911F910F91FF90EF90DF90E0
:100CB000CF90C2CFCF92DF92EF92FF920F931F930C
:100CC000CF93DF93EC01F62E642F8C81B8DB8D81FE
:100CD0008F3F11F060E0B3DB0F2D10E08F8584FFB4
:100CE00023C06E0187E0C80ED11CF12CE12CB801A5
:100CF0000E2C02C0759567950A94E2F76170F601B3
:100D000081916F019CDBFFEFEF1AFF0A88E0E81684
:100D1000F10469F7CE01DF91CF911F910F91FF9000
:100D2000EF90DF90CF9088CFB80184E075956795FC
:100D30008A95E1F7CE0193DF6F2DCE01DF91CF9140
:100D40001F910F91FF90EF90DF90CF9088CF40E000
:100D5000682F8FE495E0AECF90916205691710F08F
:100D60006FEF690FE62FF0E0E15BFA4F9489890F8E
:100D70008068EDCF81E0EBDF8BE39FE10197F1F736
:100D80000895CF92DF92EF92FF92CF93DF9381E0AD
:100D90008093DE03C1E0D0E08091DE03882309F474
:100DA00047C011DC6B017C018091DA039091DB0379
:100DB000A091DC03B091DD03A7019601281B390B3C
:100DC0004A0B5B0BDA01C90185369105A105B10516
:100DD00000F1D0DF60E080E0BFDF88E592E018DF5F
:100DE000C092DA03D092DB03E092DC03F092DD03E1
:100DF0008091D8039091D903892BA1F4D093D90382
:100E0000C093D80361E086E11ADB6091D80382E0E9
:100E100016DB85E1EADA21E0892B09F020E0209356
:100E2000DE03BACF1092D9031092D80360E0EBCF63
:100E300060E086E104DB60E082E001DB9BDF60E0F4
:100E400080E08ADF86E692E0E3DE61E080E084DF36
:100E500087E792E0DF91CF91FF90EF90DF90CF9006
:100E6000D7CECF93DF93823029F490915E059860BE
:100E700090935E05809362051092630580E48093F1
:100E8000640580E18093650580E58093660561E0F7
:100E90008091530504DB809154058F3F11F061E090
:100EA000FEDA61E080915505FADACFE4D5E09E01E3
:100EB0002F54354080915E0584FD0AC084E090E0A7
:100EC0002196281739073CF461E08E81E8DAEFCFEC
:100ED00088E090E0F5CF8BE39DE00197F1F760E0CB
:100EE00080915305ACDA60E080915505A8DA8091D5
:100EF00054058F3F11F060E0A2DA80915E0584FD19
:100F00002CC063E08FE495E0AADECBE4D6E4CE010A
:100F10000197F1F763E08FE495E0A1DE2197F1F707
:100F200063E08FE495E09BDE83E592E00197F1F7C3
:100F300062E08FE495E093DE80915E05806207DFDA
:100F400084E080935F058CE002DF14DF82E0809311
:100F5000600586E0DF91CF91FACE8062F8DE8BE407
:100F600096E40197F1F780915E058062F0DE83E5FB
:100F700092E00197F1F780915E058062E8DEDCCFB8
:100F800041E098DE81E090E0089541E0682F8FE431
:100F900095E090DE81E090E008950F931F93CF934A
:100FA000DF93EC0188819981009759F02A813B8178
:100FB0002617370730F081E0DF91CF911F910F9115
:100FC00008958B016F5F7F4F0E944811009759F081
:100FD000998388831B830A832C813D81232B59F7B6
:100FE000FC011082E8CF80E0E7CFEF92FF920F93F1
:100FF0001F93CF93DF93EC017B01198218821B8230
:101000001A821D821C82FB0101900020E9F73197B2
:101010008F01061B170BB801C0DF288139818111B0
:1010200013C02115310519F0C9010E94BF101982A2
:1010300018821D821C821B821A82DF91CF911F9120
:101040000F91FF90EF9008951D830C83B701C901A4
:10105000DF91CF911F910F91FF90EF900C9436127A
:10106000CF93DF93EC0170E060E097DF2881398156
:1010700081110FC02115310519F0C9010E94BF105F
:10108000198218821D821C821B821A82DF91CF91E5
:1010900008951D821C8260E773E0C901DF91CF9142
:1010A0000C943612EF92FF920F931F93CF93DF931E
:1010B0001F921F92CDB7DEB78C0169831A82FC01A3
:1010C000E480F580FFEFEF1AFF0AB70166DF88239F
:1010D00081F0F8012081318184819581BE016F5FAB
:1010E0007F4F820F931F0E943612F801F582E4822F
:1010F00081E00F900F90DF91CF911F910F91FF90A2
:10110000EF9008951F920F920FB60F9211242F9314
:101110003F938F939F93AF93BF938091E5039091FB
:10112000E603A091E703B091E8033091E40323E0E4
:10113000230F2D3758F50196A11DB11D2093E4030F
:101140008093E5039093E603A093E703B093E8034D
:101150008091E9039091EA03A091EB03B091EC0335
:101160000196A11DB11D8093E9039093EA03A0931A
:10117000EB03B093EC03BF91AF919F918F913F919F
:101180002F910F900FBE0F901F90189526E8230FF8
:101190000296A11DB11DD2CF1F920F920FB60F92D2
:1011A00011240BB60F922F933F934F935F936F933E
:1011B0007F938F939F93AF93BF93EF93FF93E091B0
:1011C0002602F09127021995FF91EF91BF91AF91FF
:1011D0009F918F917F916F915F914F913F912F914F
:1011E0000F900BBE0F900FBE0F901F9018951F927F
:1011F0000F920FB60F9211240BB60F922F933F93BD
:101200004F935F936F937F938F939F93AF93BF930E
:10121000EF93FF93E0912402F09125021995FF913D
:10122000EF91BF91AF919F918F917F916F915F915E
:101230004F913F912F910F900BBE0F900FBE0F90CB
:101240001F9018951F920F920FB60F9211240BB694
:101250000F922F933F934F935F936F937F938F934F
:101260009F93AF93BF93EF93FF93E0911A02F09196
:101270001B021995FF91EF91BF91AF919F918F91B3
:101280007F916F915F914F913F912F910F900BBE86
:101290000F900FBE0F901F9018951F920F920FB6D0
:1012A0000F9211240BB60F922F933F934F935F939E
:1012B0006F937F938F939F93AF93BF93EF93FF931E
:1012C000E0911802F09119021995FF91EF91BF91E9
:1012D000AF919F918F917F916F915F914F913F91CE
:1012E0002F910F900BBE0F900FBE0F901F9018956F
:1012F0001F920F920FB60F9211240BB60F922F93DD
:101300003F934F935F936F937F938F939F93AF938D
:10131000BF93EF93FF93E0912202F091230219957E
:10132000FF91EF91BF91AF919F918F917F916F91BD
:101330005F914F913F912F910F900BBE0F900FBE79
:101340000F901F9018951F920F920FB60F921124B5
:101350000BB60F922F933F934F935F936F937F93AF
:101360008F939F93AF93BF93EF93FF93E0912002EE
:10137000F09121021995FF91EF91BF91AF919F914B
:101380008F917F916F915F914F913F912F910F902E
:101390000BBE0F900FBE0F901F9018951F920F92CB
:1013A0000FB60F9211240BB60F922F933F934F93CA
:1013B0005F936F937F938F939F93AF93BF93EF93BD
:1013C000FF93E0911E02F0911F021995FF91EF919A
:1013D000BF91AF919F918F917F916F915F914F914D
:1013E0003F912F910F900BBE0F900FBE0F901F904B
:1013F00018951F920F920FB60F9211240BB60F92F1
:101400002F933F934F935F936F937F938F939F930C
:10141000AF93BF93EF93FF93E0911C02F0911D02F5
:101420001995FF91EF91BF91AF919F918F917F910E
:101430006F915F914F913F912F910F900BBE0F9045
:101440000FBE0F901F9018951F920F920FB60F921C
:1014500011240BB60F922F933F934F935F936F938B
:101460007F938F939F93AF93BF93EF93FF9348E244
:1014700051E064E271E090E080E0C1DAFF91EF9129
:10148000BF91AF919F918F917F916F915F914F919C
:101490003F912F910F900BBE0F900FBE0F901F909A
:1014A00018951F920F920FB60F9211240BB60F9240
:1014B0002F933F934F935F936F937F938F939F935C
:1014C000AF93BF93EF93FF9348EA50E064EA70E074
:1014D00083E090E094DAFF91EF91BF91AF919F91FB
:1014E0008F917F916F915F914F913F912F910F90CD
:1014F0000BBE0F900FBE0F901F9018951F920F926A
:101500000FB60F9211240BB60F922F933F934F9368
:101510005F936F937F938F939F93AF93BF93EF935B
:10152000FF9348E950E064E970E082E090E067DA18
:10153000FF91EF91BF91AF919F918F917F916F91AB
:101540005F914F913F912F910F900BBE0F900FBE67
:101550000F901F9018951F920F920FB60F921124A3
:101560000BB60F922F933F934F935F936F937F939D
:101570008F939F93AF93BF93EF93FF9348E850E00F
:1015800064E870E081E090E03ADAFF91EF91BF917A
:10159000AF919F918F917F916F915F914F913F910B
:1015A0002F910F900BBE0F900FBE0F901F901895AC
:1015B000CF93DF9300D000D0CDB7DEB7789484B559
:1015C000826084BD84B5816084BD85B5826085BD3F
:1015D00085B5816085BD80916E00816080936E00CD
:1015E00010928100809181008260809381008091BF
:1015F0008100816080938100809180008160809370
:1016000080008091B10084608093B1008091B0002F
:1016100081608093B00080919100826080939100FE
:101620008091910081608093910080919000816011
:10163000809390008091A10082608093A1008091AE
:10164000A10081608093A1008091A00081608093BF
:10165000A00080912101826080932101809121016D
:10166000816080932101809120018160809320011D
:1016700080917A00846080937A0080917A00826001
:1016800080937A0080917A00816080937A008091C3
:101690007A00806880937A001092C10082E0E1DBDA
:1016A00069DB60E080E058DB86E692E0B1DA61E079
:1016B00080E052DB87E792E0ABDA8091D704803399
:1016C00008F041C061E08DE00E944F028091D70494
:1016D000282F30E0F901EE0FFF1FE20FF31FE35157
:1016E000FC4F9081907C9D6090831092D804109262
:1016F000D9042CE0622F93D490E0829FB001112492
:1017000030E020E0AB01420F531FFA01EE0FFF1F44
:10171000E40FF51FE351FC4F408146FD06C02F5FEB
:101720003F4F2C30310571F728D9E091D7048E2F27
:1017300090E0FC01EE0FFF1FE80FF91FE351FC4F93
:1017400080818064808360ED77E087ED94E0DED86F
:1017500009EB14E02CE0F22E3CE0E32ED8018C9152
:10176000803308F046C061E08F2D0E944F02F801DF
:101770008081282F30E0F901EE0FFF1FE20FF31FE9
:10178000E351FC4F9081907C2F2D2F73922B9083EF
:10179000D80111961C92119712961C926E2D3FD46F
:1017A000A82FB0E08E9DA001112430E020E0BA0106
:1017B000620F731FFB01EE0FFF1FE60FF71FE351D0
:1017C000FC4F808186FD07C02F5F3F4F2C303105D5
:1017D00071F7CD01D2D8D801EC918E2F90E0FC01A9
:1017E000EE0FFF1FE80FF91FE351FC4F808180646B
:1017F000808360ED77E0C80189D80D5F1F4FFA94B0
:10180000B2E0FB12ABCF61E088E20E944F0261E0E0
:1018100088E20E941F0219E261E0812F0E944F02BC
:1018200060E0812F0E941F021F5F1333A9F764E657
:1018300070E080E090E00E94B30262E085E10E94E7
:101840004F0261E082E00E944F0261E086E10E9467
:101850004F0281EC96E090931D0280931C028091D0
:1018600069008C7F826080936900E89A70E1872E1E
:10187000912CECE32E2EE2E03E2EF3E04F2E512C85
:10188000A0E06A2EA0E07A2E0E944703182F88233A
:1018900009F47CC08B3209F080C06CDA60E080E033
:1018A0005BDA88E892E0B4D961E080E055DA60E77D
:1018B00073E0CE01019699DB0E944703182F88231D
:1018C000D9F3082E000C990BC0970A9740F489E9C8
:1018D00092E09ED9612FCE010196E4DBEDCF1D335E
:1018E00091F52D813E818091DE049091DF042817CF
:1018F0003907A9F489819A816091DA047091DB0437
:10190000009709F49CC16115710539F4232B09F482
:10191000A4C1DC018C9190E09DC19FD59BC12ADAC6
:1019200060E080E019DA8FED92E072D961E080E04A
:1019300013DA80EF92E06CD960ED77E080E090E020
:101940000E94B30213C0133671F414DA60E080E031
:1019500003DA88E892E05CD961E080E0FDD9CE014D
:1019600001967EDBA9CF1A3209F0A6CFCE010196EF
:101970005BD900DA60E080E0EFD986E692E048D9F2
:1019800061E080E0E9D987E792E042D9611471040F
:1019900009F47ACF0E94000077CF082E000C990B33
:1019A000C0970A9708F0BAC0E5D960E080E0D4D9C2
:1019B00081E093E02DD9812FE8DA60E773E0CE0172
:1019C000019613DB612FCE0101966CDB0E94470369
:1019D000182F8823D9F3082E000C990BC0970A976B
:1019E00018F4812FD2DAEECF1D3309F090C089812F
:1019F0009A810097A1F0B6D28B010B5011090A30E1
:101A0000110588F0B7D960E080E0A6D989E093E0BD
:101A1000FFD861E080E0A0D98AE193E01DC060E0DA
:101A200070E0CB01E9CF7801EE0CFF1C9701285D37
:101A30003D4F5901D9018D919C9118161906B4F0AA
:101A400099D960E080E088D985E293E0E1D861E04F
:101A500080E082D986E393E0DBD8CE0101960E9434
:101A600086016CED75E080E090E06ACF83D960E09C
:101A700080E072D987E493E0CBD861E080E06CD954
:101A8000B6E0B09FC001B19F900D1124FC01E35856
:101A9000FB4F6F01848195819401281B390BC9018B
:101AA0009695879561E058D9C6010E948601E00E9F
:101AB000F11EC70187549B4F7C0168EE73E00E94C2
:101AC0008604075D61E0802F0E941F02D501CD9042
:101AD000DC90B1E0CB1AD108F501D182C08264E676
:101AE00070E080E090E00E94B30264E873E080E080
:101AF00090E00E94B30260ED77E0C7010E94860487
:101B00001C141D040CF02BC160E0802F26C11A327A
:101B100009F42CCF133609F059CF28CF1F3209F022
:101B200028CF28D960E080E017D988E593E070D805
:101B300061E080E011D989E693E06AD860E773E05C
:101B4000CE01019652DA0E944703182F8823D9F359
:101B5000082E000C990BC0970A9738F4812F15DADC
:101B6000612FCE0101969EDAEECF1D3309F04EC0F3
:101B700089819A81009709F445C0F4D18B010B50FB
:101B800011090A30110508F03DCFF4D8F6E0F09FB6
:101B9000C001F19F900D11249C0123583B4F790106
:101BA000D90114968D919C91F401E81BF90BCF019A
:101BB0009695879560E0D0D8C7010E94860161E0C4
:101BC00080E0CAD889E693E023D8000F111FF801FE
:101BD000E85DFD4FC080D1800D2C000CEE08FF08A1
:101BE0004AE0C701B601F7FE0AC08DE2CED96627EA
:101BF0007727CB016C197D098E099F094AE00E9465
:101C0000BB052FCF60E070E0CB01B8CF1A3209F4EA
:101C1000ADCE133609F097CFADD860E080E09CD808
:101C200088E593E00E94080661E080E095D889E6A7
:101C300093E00E940806CE01019612DA84CF611566
:101C4000710559F0232B49F0FB01808190E09195BB
:101C500081959109892B09F062CE8CD860E080E0F3
:101C60007BD88BE992E00E94080661E080E074D89E
:101C70008CEA92E00E94080668EE73E087ED94E03B
:101C80000E94860464EF71E080E090E00E94B3025D
:101C900060E088E20E941F0209EB14E068EE73E046
:101CA000C8010E9486040D5F1F4FB4E0073D1B076B
:101CB000A9F764EF71E080E090E00E94B30219E2BE
:101CC00061E0812F0E941F021F5F1333C9F752D8B2
:101CD00060E080E041D88DEB92E00E94080661E070
:101CE00080E03AD88EEC92E00E9408060E944703FA
:101CF0008823E1F38B32D1F708E212E069EBE62E9C
:101D000064E0F62E60ED77E0C7010E948604F801DA
:101D1000419251928F01F3E0EF0EF11C2016310633
:101D200089F719E260E0812F0E941F021F5F1333C1
:101D3000C9F764E670E080E090E00E94B30260E9D9
:101D400071E080E090E00E94B30260ED77E087ED03
:101D500094E00E94860461E088E20E941F0264EF22
:101D600071E080E090E0ECCD61E773E08AED94E013
:101D70003CD969E773E08DE794E037D96EE773E00B
:101D800083E894E032D968E873E089E894E02DD9DB
:101D900062E973E08FE894E028D961EA73E085E9AD
:101DA00094E023D966EA73E08BE994E01ED96CEAEB
:101DB00073E081EA94E019D968EB73E087EA94E074
:101DC00014D96FEB73E08DEA94E00FD96BEC73E0FC
:101DD00083EB94E00AD98091DF03803308F0AAC036
:101DE00091E0980F9093DF038093D70490E0FC017B
:101DF000EE0FFF1FE80FF91FE351FC4F88EB9BE04C
:101E000092838183E9EBF4E027ED34E04FEF68EB58
:101E10007BE08091DF03803308F090C091E0980F61
:101E20009093DF03808390E0DC01AA0FBB1FA80F13
:101E3000B91FA351BC4F12967C936E9311973396A2
:101E40002E173F0731F7109252051092510580E589
:101E500092E09093500580934F058FE08093530557
:101E60008FEF8093540580E18093550581E1809345
:101E7000560582E18093570583E18093580584E1FC
:101E80008093590510925A0510925B0510925C05DB
:101E900010925D0510925E0581E00E94310710925C
:101EA000E2041092E6041092E5041092E70486E43E
:101EB00092E09093E1048093E004ECEFF4E0108270
:101EC000148213821582369685E0E833F807B9F755
:101ED00084E092E0909343058093420580E092E095
:101EE000909345058093440584E080934605809354
:101EF000470588E092E090934105809340058AE091
:101F000090E0909349058093480584EF91E0909389
:101F10004B0580934A0510924E0510924D05109284
:101F20003C0510923D0510923E0510923F0510921F
:101F30004C0508958FEF8093D70464CF40837FCF03
:101F4000CF93DF93C9EBD4E02697CE010E9414060D
:101F500084E0CD37D807C1F78AED94E0DF91CF91C7
:101F60000C9414061F93FC0199278827BC01E89460
:101F700011911032E9F3193010F01E30C8F31B3202
:101F800049F01D3241F4689405C012D0610F711DF3
:101F9000811D911D119110531A30B8F33EF49095A4
:101FA0008095709561957F4F8F4F9F4F1F9108953A
:101FB000592F482F372F262F660F771F881F991FFD
:101FC000660F771F881F991F620F731F841F951F4D
:101FD000660F771F881F991F0895A1E21A2EAA1B6A
:101FE000BB1BFD010DC0AA1FBB1FEE1FFF1FA217C9
:101FF000B307E407F50720F0A21BB30BE40BF50BC6
:10200000661F771F881F991F1A9469F7609570954E
:10201000809590959B01AC01BD01CF010895991B5E
:1020200079E004C0991F961708F0961B881F7A95CF
:10203000C9F780950895EE0FFF1F881F8BBF07908B
:10204000F691E02D19940F931F93CF93DF93823075
:10205000910510F482E090E0E0916905F0916A0545
:1020600030E020E0B0E0A0E0309799F42115310590
:1020700009F44AC0281B390B24303105D8F58A8170
:102080009B816115710589F1FB0193838283FE01B8
:1020900011C0408151810281138148175907E0F036
:1020A0004817590799F4109761F012960C931297FC
:1020B00013961C933296CF01DF91CF911F910F9110
:1020C00008950093690510936A05F4CF2115310531
:1020D00051F04217530738F0A901DB019A01BD0105
:1020E000DF01F801C1CFEF01F9CF90936A0580932A
:1020F0006905CDCFFE01E20FF31F8193919322502A
:10210000310939832883D7CF20916705309168053D
:10211000232B41F420913E0230913F023093680519
:102120002093670520913C0230913D022115310535
:1021300041F42DB73EB74091400250914102241B1B
:10214000350BE0916705F0916805E217F307A0F4FD
:102150002E1B3F0B2817390778F0AC014E5F5F4FFD
:102160002417350748F04E0F5F1F509368054093C2
:102170006705819391939FCFF0E0E0E09CCFCF93F0
:10218000DF930097E9F0FC01329713821282A0914D
:102190006905B0916A05ED0130E020E01097A1F4E7
:1021A00020813181820F931F20916705309168054E
:1021B0002817390709F061C0F0936805E0936705B7
:1021C000DF91CF910895EA01CE17DF07E8F54A8144
:1021D0005B819E0141155105B1F7E901FB83EA835B
:1021E00049915991C40FD51FEC17FD0761F4808107
:1021F00091810296840F951FE901998388838281DA
:1022000093819B838A83F0E0E0E012968D919C910C
:1022100013970097B9F52D913C911197CD01029636
:10222000820F931F209167053091680528173907A1
:1022300039F6309751F510926A0510926905B093FE
:102240006805A0936705BCCFD383C28340815181C9
:10225000840F951FC817D90761F44E5F5F4F8881BF
:102260009981480F591F518340838A819B819383B1
:1022700082832115310509F0B0CFF0936A05E09310
:1022800069059ECFFD01DC01C0CF13821282D7CF3A
:102290004F925F926F927F928F929F92AF92BF9276
:1022A000CF92DF92EF92FF920F931F93CF93DF9322
:1022B0008C01009791F4CB01DF91CF911F910F9189
:1022C000FF90EF90DF90CF90BF90AF909F908F9056
:1022D0007F906F905F904F90B6CEFC01E60FF71F96
:1022E0009C0122503109E217F30708F4AAC0D90172
:1022F000CD91DC911197C617D70718F1C530D105DC
:1023000070F0CE0104978617970748F0C61BD70BCD
:102310002297C193D1936D937C93CF0130DFC80195
:10232000DF91CF911F910F91FF90EF90DF90CF90B1
:10233000BF90AF909F908F907F906F905F904F90E5
:1023400008955B01AC1ABD0A4C018C0E9D1EA09134
:102350006905B0916A05512C412CF12CE12C1097A4
:1023600031F580916705909168058815990509F008
:102370005CC04616570608F058C080913C02909108
:102380003D02009741F48DB79EB7409140025091B5
:102390004102841B950BE817F90708F052C0F0932F
:1023A0006805E0936705F90171836083B8CF8D916B
:1023B0009C91119712966C90129713967C9013979C
:1023C000A815B90559F56C0142E0C40ED11CCA1418
:1023D000DB0420F1AC014A195B09DA01129615976A
:1023E00080F06282738251834083D9016D937C9324
:1023F000E114F10471F0D7011396FC93EE93129758
:102400008ECF22968C0F9D1FF90191838083F3015B
:10241000EFCFF0936A05E093690581CF481659061E
:1024200008F42C017D01D3019ACFCB010CDE7C0195
:10243000009739F0AE01B80107D0C801A0DE8701CE
:102440006ECF10E000E06BCFFB01DC0102C0019019
:102450000D9241505040D8F70895FB01DC018D9159
:10246000019080190110D9F3990B0895FB01DC014B
:1024700001900D920020E1F7089511E0C3E0D1E052
:1024800000E005C0802FFE01D6DD2196011DC4307D
:0C249000D10780E00807B1F7F894FFCFF7
:10249C001F21232517191B1D3738392F3435362AA0
:1024AC003132332D63303D2B85048504850485043E
:1024BC0085048504850485040300030003000300E0
:1024CC0003000300030003000300030000006B057E
:1024DC008000000000008B024C021D020000000076
:1024EC00C0075901B805B7052020205741524E4965
:1024FC004E47212121002057656C636F6D65207458
:10250C006F20746865200056656E64696E67204D97
:10251C00616368696E652100454E544552205041F7
:10252C005353574F5244203A002A00202020796FF1
:10253C0075277220696E2121202020002077616987
:10254C00742061206D6F6D656E74202000202070EA
:10255C0072657373202B207768656E202000202015
:10256C00796F7527726520646F6E65202020005787
:10257C00524F4E472050415353574F524421210044
:10258C0054525920414741494E204C415445522107
:10259C0000434F4445203A20002020746865726542
:1025AC00206973204E4F20202000202070726F6411
:1025BC00756374200020776520617265206F7574D7
:1025CC00206F662020002020746869732070726F61
:1025DC006475637420200020206865726520796F13
:1025EC00752061726520200020656E746572207400
:1025FC00686520636F646520002020202020202047
:10260C0000313233343536370043616B6500486135
:10261C006D6275726765720043686F636F6C61748D
:10262C00650043686F636F6C617465206D696C6BDA
:10263C00004D696C6B00536E61636B00467275697B
:10264C0074206A756963650053616E647973004721
:10265C00756D6D692063616E647900436865776997
:08266C006E672067756D000028
:00000001FF
