:100000000C943B010C946C010C946C010C946C01ED
:100010000C946C010C946C010C946C010C946C01AC
:100020000C946C010C946C010C946C010C946C019C
:100030000C946C010C946C010C946C010C946C018C
:100040000C946C010C9461070C946C010C946C0181
:100050000C946C010C946C010C946C010C948D0646
:100060000C946C010C9457060C942D060C946C01A6
:100070000C946C010C946C010C946C010C946C014C
:100080000C9433070C946C010C946C010C946C016F
:100090000C946C010C946C010C946C010C946C012C
:1000A0000C946C010C946C010C9405070C946C017D
:1000B0000C946C010C946C010C946C010C94D7069C
:1000C0000C946C010C946C010C946C010C946C01FC
:1000D0000C946C010C946C010C946C010C946C01EC
:1000E0000C946C010C945F020C9466030C94FB035B
:1000F0000C947D030C9458030C9485030C94970284
:100100000C9477030C948F030C9462030C94CA0331
:100110000C94E9020C946A030C948F070C942E0241
:100120000C9499030C943B040C949D030C94810350
:100130000C9401020C943D020C9493030C949803CC
:100140000C948B030C9451020C946D030C945E037D
:100150000C94730300002100240027002A002D00C6
:100160003000330001010000040107010A01000012
:100170002200250028002B002E003100340002014F
:100180000000050108010B010000200023002600EB
:1001900029002C002F00320000010000030106019D
:1001A00009010505050507050808080802020202FD
:1001B0000A0A080804040404010101010101010103
:1001C0000303030303030303040707070C0C0C0CCE
:1001D0000C0C0C0C020202020606060606060606B7
:1001E0000B0B0B0B0B0B0B0B010210202008081044
:1001F0002040102040800201020108040201010297
:10020000040810204080804020100804020180046F
:1002100002018040201008040201080402010102CA
:1002200004081020408001020408102040800000D3
:100230000A0B02090C0D0E08070304010000000060
:1002400000000000000000000000000000000000AE
:10025000000000000000000000001211100000006B
:10026000000000000000000000000000000000008E
:10027000000000008F0711241FBECFEFD1E2DEBFC8
:10028000CDBF00E00CBF12E0A0E0B2E0E8E9F7E18A
:1002900000E00BBF02C007900D92A633B107D9F75B
:1002A00023E0A6E3B2E001C01D92A43EB207E1F74D
:1002B00011E0CBE3D1E000E006C021970109802FD7
:1002C000FE010E94AC09CA33D10780E00807A9F7F4
:1002D0000E941D080C94CA0B0C94000096E0899FA4
:1002E000D0011124AF58BC4F90967C936E935F97CA
:1002F00091E091969C939197E091DE03F091DF035A
:100300009091DD03992339F0309751F0811108C0A5
:1003100080918D031994309719F05C968C91FACFE7
:100320000895CF92DF92EF92FF920F931F9396E082
:10033000899FF0011124EF58FC4F11A2278D30A1A5
:100340002130310551F178F02230310509F451C0E6
:100350002330310509F452C01F910F91FF90EF90A7
:10036000DF90CF9008956623B9F361E070E00E94BA
:100370006E012FB7F8948091D0029091D102A09194
:10038000D202B091D3022FBF8093C9039093CA03C6
:10039000A093CB03B093CC03DFCF9FB7F894C0906A
:1003A000D002D090D102E090D202F090D3029FBF51
:1003B0000091C9031091CA032091CB033091CC0363
:1003C000C01AD10AE20AF30A0091DB031091DC03A0
:1003D00030E020E00C151D052E053F0550F462E0CD
:1003E00070E01F910F91FF90EF90DF90CF900C94F1
:1003F0006E016111B1CF63E070E0F3CF70E060E0B7
:10040000F0CFAF92BF92CF92DF92EF92FF920F9315
:100410001F93CF93DF936C017B018B01040F151F9A
:10042000EB015E01AE18BF08C017D10759F0699102
:10043000D601ED91FC910190F081E02DC601199556
:10044000892B79F7C501DF91CF911F910F91FF9013
:10045000EF90DF90CF90BF90AF900895FC01538D47
:10046000448D252F30E0842F90E0821B930B54178E
:1004700010F0CF96089501970895FC01918D828D1B
:10048000981761F0A28DAE0FBF2FB11D5D968C91B4
:10049000928D9F5F9F73928F90E008958FEF9FEFF3
:1004A0000895FC01918D828D981731F0828DE80FAF
:1004B000F11D858D90E008958FEF9FEF0895FC0169
:1004C000918D228D892F90E0805C9F4F821B910936
:1004D0008F739927089584ED92E00E945F0221E0D6
:1004E000892B09F420E0822F0895FC01A48DA80F28
:1004F000B92FB11DA35ABF4F2C91848D90E0019666
:100500008F739927848FA689B7892C93A089B18985
:100510008C91837080648C93938D848D981306C026
:100520000288F389E02D80818F7D80830895EF928A
:10053000FF920F931F93CF93DF93EC0181E0888F9D
:100540009B8D8C8D98131AC0E889F989808185FF6D
:1005500015C09FB7F894EE89FF896083E889F9890F
:1005600080818370806480839FBF81E090E0DF9111
:10057000CF911F910F91FF90EF900895F62E0B8D64
:1005800010E00F5F1F4F0F731127E02E8C8D8E111F
:100590000CC00FB607FCFACFE889F989808185FF86
:1005A000F5CFCE010E947502F1CFEB8DEC0FFD2F40
:1005B000F11DE35AFF4FF0829FB7F8940B8FEA8941
:1005C000FB8980818062CFCF682F84ED92E00C940C
:1005D0009702CF93DF93EC01888D8823B9F0AA8925
:1005E000BB89E889F9898C9185FD03C0808186FDEE
:1005F0000DC00FB607FCF7CF8C9185FFF2CF80813D
:1006000085FFEDCFCE010E947502E9CFDF91CF913A
:10061000089580E090E0892B29F00E946B028111FF
:100620000E94000080E090E0892B49F080E090E09B
:10063000892B29F00E94000081110E94000080E0B7
:1006400090E0892B49F080E090E0892B29F00E940E
:10065000000081110E94000080E090E0892B49F0A9
:1006600080E090E0892B29F00E94000081110C9419
:10067000000008958150823108F05AC0E82FF0E060
:100680008827EA5BFC4F8F4F0C94AC0966036A0322
:1006900058035E03620398036D03730377037D03BE
:1006A000810385038B038F039803930399039D03B1
:1006B000809180008F7780938000089580918000E2
:1006C0008F7DF9CF80918000877FF5CF84B58F77BC
:1006D00084BD089584B58F7DFBCF8091B0008F7766
:1006E0008093B00008958091B0008F7DF9CF809104
:1006F00090008F77809390000895809190008F7D77
:10070000F9CF80919000877FF5CF8091A0008F77FF
:100710008093A00008958091A0008F7DF9CF8091F3
:10072000A000877FF5CF809120018F7780932001F3
:100730000895809120018F7DF9CF80912001877FDE
:10074000F5CFCF93DF93282F30E0F901E25DFD4F25
:100750008491F901E851FE4FD491F901EE55FE4F15
:10076000C491CC23A1F081110E943A03EC2FF0E058
:10077000EE0FFF1FE857FE4FA591B491EC91ED23CA
:1007800081E090E009F480E0DF91CF91089580E06E
:1007900090E0FACF862F0C94A1031F93CF93DF93A1
:1007A000282F30E0F901E25DFD4F8491F901E85115
:1007B000FE4FD491F901EE55FE4FC491CC23A9F020
:1007C000162F81110E943A03EC2FF0E0EE0FFF1F6D
:1007D000E259FE4FA591B4918FB7F894EC911111A5
:1007E00008C0D095DE23DC938FBFDF91CF911F919E
:1007F0000895DE2BF8CF862F642F0C94CD03CF9372
:10080000DF9390E0FC01E851FE4F24918E559E4FFE
:10081000FC0184918823C9F090E0880F991FFC01A6
:10082000EC5AFE4FA591B491FC01E259FE4FC591DF
:10083000D49161110DC09FB7F8948C9120958223BB
:100840008C938881282328839FBFDF91CF910895BF
:10085000623051F49FB7F8943C91822F80958323A6
:100860008C93E8812E2BEFCF8FB7F894EC912E2B41
:100870002C938FBFEACF862F642F0C94FF036F92C7
:100880007F928F929F92AF92BF92CF92DF92EF9220
:10089000FF920F931F93CF93DF9381E08093DD034B
:1008A0008FB7F8944091D0025091D1026091D2025A
:1008B0007091D3028FBF8091CD039091CE03A09110
:1008C000CF03B091D003481B590B6A0B7B0B80916F
:1008D000D9039091DA03B0E0A0E084179507A6074A
:1008E000B70708F01DC1C0E08091D703C81760F4B6
:1008F000E091D303F091D403EC0FF11D62E080810D
:100900000E94FF03CF5FF0CF712C812C912C5401FA
:1009100083948091D803781608F05FC0072D10E00B
:10092000E091D503F091D603E00FF11F61E08081E3
:100930000E94FF03E091D503F091D603E00FF11F71
:1009400060E080810E94CD03D501C401072C04C062
:10095000880F991FAA1FBB1F0A94D2F76C017C0154
:10096000E094F094612C8091D7036816F8F4C62DBA
:10097000D0E0E091D303F091D403EC0FFD1F808110
:100980000E94A1032496CC0FDD1FCF58DC4F892B8A
:1009900041F4888199818C299D2999838883639466
:1009A000E2CF888199818E219F21F7CFE091D503F5
:1009B000F091D603E00FF11F61E080810E94CD032A
:1009C0008091D5039091D603080F191F60E0F801BC
:1009D00080810E94FF0373949CCFC1E7D3E0FE01A6
:1009E0008FEF9FEF278D30A1232B21F4148E968F4C
:1009F000858F11A2369623E0ED3AF20799F7F12C94
:100A000096E0D92E8091D703F81608F050C0E12C5B
:100A10000F2D10E0000F111F07581C4F2091D80315
:100A2000E21608F042C0F801608171810E2C02C00C
:100A3000769567950A94E2F7F29E900111242E0DA7
:100A4000311DE1E7F3E080E0458D568D2417350731
:100A500009F46AC08F5F36968A30B1F760FF23C011
:100A6000E1E7F3E090E080E0448D411117C0E091B0
:100A7000D103F091D203E20FF31F4081D89EF00121
:100A8000D99EF00D1124EF58FC4F448F368F258FDF
:100A900010A2178E61E00E94910105C00196369662
:100AA0008A30910509F7E394B9CFF394ABCF80E096
:100AB00099A19111892F2696F3E0CD3ADF07C1F76E
:100AC0009FB7F8944091D0025091D1026091D20228
:100AD0007091D3029FBF4093CD035093CE03609398
:100AE000CF037093D0038823D9F080919203882399
:100AF000B9F08091900390919103019789F48091CE
:100B00008D03DF91CF911F910F91FF90EF90DF90B8
:100B1000CF90BF90AF909F908F907F906F900895EF
:100B20001092DD0380E0EDCF6170B5CFCF93DF93FE
:100B3000DB01EA01FC01EA53FD4F40815CE0589F74
:100B40009001599F300D112447FF1CC011961C9233
:100B50001E9280818F5F80838081A901480F511D83
:100B600087FD5A9557FF03C080818C30ACF08D9182
:100B70009C911197049680349C4938F18D919C91F9
:100B8000049625C08081A901480F511D87FD5A9503
:100B900057FFDFCF8081DDCF8D919C914081240F65
:100BA000311D47FD3A95D901AA0FBB1FA20FB31FF4
:100BB000AA5CBD4F11962D913C91820F931F998392
:100BC00088838081DF91CF91089580E49CE99983A7
:100BD00088838FEF8083F6CF0F931F93CF93DF939C
:100BE000EC01219710E000E0C230D10538F0CE01D1
:100BF0000E94EC05080F191F2297F6CFC801019635
:100C0000DF91CF911F910F9108950F931F93CF9371
:100C1000DF93EC0188819981009759F02A813B810B
:100C20002617370730F081E0DF91CF911F910F91A8
:100C300008958B016F5F7F4F0E94D90A009759F08A
:100C4000998388831B830A832C813D81232B59F749
:100C5000FC011082E8CF80E0E7CF1F920F920FB621
:100C60000F9211240BB60F922F933F934F935F93E4
:100C70006F937F938F939F93AF93BF93EF93FF9364
:100C800084ED92E00E947502FF91EF91BF91AF91C8
:100C90009F918F917F916F915F914F913F912F9194
:100CA0000F900BBE0F900FBE0F901F9018951F92C4
:100CB0000F920FB60F9211240BB60F922F938F93B2
:100CC0009F93EF93FF93E091E402F091E50280811E
:100CD000E091EA02F091EB0282FD1DC090818091CB
:100CE000ED028F5F8F732091EE02821741F0E09149
:100CF000ED02F0E0EC52FD4F958F8093ED02FF91F5
:100D0000EF919F918F912F910F900BBE0F900FBE7F
:100D10000F901F9018958081F2CF1F920F920FB6FF
:100D20000F9211242F933F938F939F93AF93BF9371
:100D30008091D0029091D102A091D202B091D302C1
:100D40003091CE0223E0230F2D3758F50196A11DD7
:100D5000B11D2093CE028093D0029093D102A09334
:100D6000D202B093D3028091CA029091CB02A0919B
:100D7000CC02B091CD020196A11DB11D8093CA0293
:100D80009093CB02A093CC02B093CD02BF91AF91D0
:100D90009F918F913F912F910F900FBE0F901F90B9
:100DA000189526E8230F0296A11DB11DD2CF1F92E0
:100DB0000F920FB60F9211240BB60F922F933F9301
:100DC0004F935F936F937F938F939F93AF93BF9353
:100DD000EF93FF9348E251E064E271E090E080E03D
:100DE0000E949605FF91EF91BF91AF919F918F91D6
:100DF0007F916F915F914F913F912F910F900BBE1B
:100E00000F900FBE0F901F9018951F920F920FB664
:100E10000F9211240BB60F922F933F934F935F9332
:100E20006F937F938F939F93AF93BF93EF93FF93B2
:100E300048EA50E064EA70E083E090E00E949605A2
:100E4000FF91EF91BF91AF919F918F917F916F91A2
:100E50005F914F913F912F910F900BBE0F900FBE5E
:100E60000F901F9018951F920F920FB60F9211249A
:100E70000BB60F922F933F934F935F936F937F9394
:100E80008F939F93AF93BF93EF93FF9348E950E005
:100E900064E970E082E090E00E949605FF91EF9196
:100EA000BF91AF919F918F917F916F915F914F9182
:100EB0003F912F910F900BBE0F900FBE0F901F9080
:100EC00018951F920F920FB60F9211240BB60F9226
:100ED0002F933F934F935F936F937F938F939F9342
:100EE000AF93BF93EF93FF9348E850E064E870E05E
:100EF00081E090E00E949605FF91EF91BF91AF9144
:100F00009F918F917F916F915F914F913F912F9121
:100F10000F900BBE0F900FBE0F901F901895109260
:100F2000D7021092D60288EE93E0A0E0B0E0809362
:100F3000D8029093D902A093DA02B093DB028DE13C
:100F400092E09093D5028093D40285EC90E0909348
:100F5000E1028093E00284EC90E09093E3028093BE
:100F6000E20280EC90E09093E5028093E40281EC51
:100F700090E09093E7028093E60282EC90E09093F9
:100F8000E9028093E80286EC90E09093EB02809374
:100F9000EA021092ED021092EE021092EF0210920D
:100FA000F00210927303109277031092760310925E
:100FB00078038FE292E09093720380937103EDE8DF
:100FC000F3E01082148213821582369683E0E93CA6
:100FD000F807B9F783E092E09093D4038093D303AA
:100FE00080E092E09093D6038093D50384E08093D1
:100FF000D70383E08093D80387E092E09093D203F5
:101000008093D1038AE090E09093DA038093D90330
:1010100084EF91E09093DC038093DB031092DF0375
:101020001092DE031092CD031092CE031092CF03E4
:101030001092D0031092DD030895CF93DF9300D078
:1010400000D01F921F92CDB7DEB7789484B582602E
:1010500084BD84B5816084BD85B5826085BD85B55C
:10106000816085BD80916E00816080936E001092DA
:101070008100809181008260809381008091810055
:1010800081608093810080918000816080938000E6
:101090008091B10084608093B1008091B000816044
:1010A0008093B00080919100826080939100809144
:1010B0009100816080939100809190008160809385
:1010C00090008091A10082608093A1008091A10096
:1010D00081608093A1008091A00081608093A00036
:1010E00080912101826080932101809121018160A2
:1010F0008093210180912001816080932001809163
:101100007A00846080937A0080917A008260809374
:101110007A0080917A00816080937A0080917A00D1
:10112000806880937A001092C100E091E402F0910F
:10113000E50282E08083E091E002F091E10210821A
:10114000E091E202F091E3028FEC80831092EC02D6
:10115000E091E802F091E90286E08083E091E60206
:10116000F091E702808180618083E091E602F09156
:10117000E702808188608083E091E602F091E702D7
:10118000808180688083E091E602F091E7028081AF
:101190008F7D80830E943F048093CF02082E000C35
:1011A000990BC0970A9708F08FC01A8219821C8287
:1011B0001B821E821D8270E060E0CE0101960E94BB
:1011C000050629813A81811140C02115310519F0A8
:1011D000C9010E94500A1A8219821E821D821C8235
:1011E0001B8283E590E00E94E4021091CF02812FE0
:1011F000012E000C990B9C01205331092A30310536
:1012000060F50E94E4021F831886ED80FE808FEF58
:10121000E81AF80AB701CE0101960E940506882354
:1012200069F029813A818D819E81BE01695F7F4F7E
:10123000820F931F0E94C30BFE82ED820E943F0427
:101240008823E1F38093CF02D0CF1E821D8265E315
:1012500072E0C9010E94C30BC4CF83E490E01A324C
:1012600059F583E590E00E94E40289819A81C12CBE
:10127000D12C7601009719F00E9470096B01C6010C
:101280008330910524F189E490E00E94E402C601D4
:1012900001970E94E402C60102970E94EC057C01BE
:1012A00084ED92E00E945F02892BD1F384ED92E0FD
:1012B0000E943D028E0D9F1D0E94E40289819A8149
:1012C000009711F00E94500A0E94090363CF18167C
:1012D00019061CF484E490E0EFCF85E490E0ECCFB5
:1012E0001F93FC0199278827BC01E89411911032C3
:1012F000E9F3193010F01E30C8F31B3251F01D32E3
:1013000049F4689406C00E949709610F711D811D00
:10131000911D119110531A30B0F33EF490958095C1
:10132000709561957F4F8F4F9F4F1F910895592F53
:10133000482F372F262F660F771F881F991F660F9C
:10134000771F881F991F620F731F841F951F660FD9
:10135000771F881F991F0895EE0FFF1F881F8BBFEF
:101360000790F691E02D19940F931F93CF93DF937D
:101370008230910510F482E090E0E091E203F09178
:10138000E30330E020E0B0E0A0E0309799F42115CD
:10139000310509F44AC0281B390B24303105D8F532
:1013A0008A819B816115710589F1FB019383828399
:1013B000FE0111C0408151810281138148175907F4
:1013C000E0F04817590799F4109761F012960C93C2
:1013D000129713961C933296CF01DF91CF911F91F4
:1013E0000F9108950093E2031093E303F4CF2115C6
:1013F000310551F04217530738F0A901DB019A017A
:10140000BD01DF01F801C1CFEF01F9CF9093E303F4
:101410008093E203CDCFFE01E20FF31F81939193FE
:101420002250310939832883D7CF2091E0033091AE
:10143000E103232B41F420911502309116023093E1
:10144000E1032093E003209113023091140221154F
:10145000310541F42DB73EB7409117025091180263
:10146000241B350BE091E003F091E103E217F30751
:10147000A0F42E1B3F0B2817390778F0AC014E5F04
:101480005F4F2417350748F04E0F5F1F5093E1035D
:101490004093E003819391939FCFF0E0E0E09CCFF5
:1014A000CF93DF930097E9F0FC0132971382128209
:1014B000A091E203B091E303ED0130E020E010974A
:1014C000A1F420813181820F931F2091E00330919C
:1014D000E1032817390709F061C0F093E103E093B5
:1014E000E003DF91CF910895EA01CE17DF07E8F519
:1014F0004A815B819E0141155105B1F7E901FB83EA
:10150000EA8349915991C40FD51FEC17FD0761F487
:10151000808191810296840F951FE90199838883C8
:10152000828193819B838A83F0E0E0E012968D9123
:101530009C9113970097B9F52D913C911197CD018E
:101540000296820F931F2091E0033091E103281748
:10155000390739F6309751F51092E3031092E20300
:10156000B093E103A093E003BCCFD383C283408157
:101570005181840F951FC817D90761F44E5F5F4FE3
:1015800088819981480F591F518340838A819B81AB
:10159000938382832115310509F0B0CFF093E303E3
:1015A000E093E2039ECFFD01DC01C0CF13821282E3
:1015B000D7CF4F925F926F927F928F929F92AF920E
:1015C000BF92CF92DF92EF92FF920F931F93CF9330
:1015D000DF938C01009799F4CB01DF91CF911F919C
:1015E0000F91FF90EF90DF90CF90BF90AF909F90C2
:1015F0008F907F906F905F904F900C94B409FC0196
:10160000E60FF71F9C0122503109E217F30708F497
:10161000AEC0D901CD91DC911197C617D70720F143
:10162000C530D10578F0CE0104978617970750F0A2
:10163000C61BD70B2297C193D1936D937C93CF0197
:101640000E94500AC801DF91CF911F910F91FF9026
:10165000EF90DF90CF90BF90AF909F908F907F9052
:101660006F905F904F9008955B01AC1ABD0A4C01DA
:101670008C0E9D1EA091E203B091E303512C412CEE
:10168000F12CE12C109731F58091E0039091E1036A
:101690008815990509F05CC04616570608F058C031
:1016A0008091130290911402009741F48DB79EB778
:1016B0004091170250911802841B950BE817F90707
:1016C00008F055C0F093E103E093E003F901718362
:1016D0006083B8CF8D919C91119712966C90129760
:1016E00013967C901397A815B90559F56C0142E043
:1016F000C40ED11CCA14DB0420F1AC014A195B09E9
:10170000DA011296159780F06282738251834083CA
:10171000D9016D937C93E114F10471F0D701139614
:10172000FC93EE9312978ECF22968C0F9D1FF9019A
:1017300091838083F301EFCFF093E303E093E2031F
:1017400081CF4816590608F42C017D01D3019ACFA8
:10175000CB010E94B4097C01009749F0AE01B801A9
:101760000E94BA0BC8010E94500A87016BCF10E09B
:1017700000E068CFFB01DC0102C001900D924150F6
:101780005040D8F70895FB01DC0101900D92002034
:08179000E1F70895F894FFCF82
:101798001F1B1723272B2F3132333435363738396F
:1017A8002A30230000E403800000000000970201B3
:1017B800022E02E9025F023D025102000000003BD6
:0617C80004FB03CA03004C
:00000001FF
