:10000000F5C0000021C100001FC100001DC100009B
:100010001BC1000019C1000017C1000015C100007C
:1000200013C1000011C100000FC100000DC100008C
:100030000BC1000009C1000007C1000005C100009C
:1000400003C100004BC30000FFC00000FDC0000062
:10005000FBC00000F9C00000F7C000006EC2000045
:10006000F3C00000F1C00000EFC00000EDC00000D0
:10007000EBC00000E9C00000E7C00000E5C00000E0
:1000800000C30000E1C00000DFC00000DDC00000D0
:10009000DBC00000D9C00000D7C00000D5C0000000
:1000A000D3C00000D1C00000BFC20000CDC000001E
:1000B000CBC00000C9C00000C7C0000088C200005B
:1000C000C3C00000C1C00000BFC00000BDC0000030
:1000D000BBC00000B9C00000B7C00000B5C0000040
:1000E000B3C0000000000A0B02090C0D0E08070344
:1000F00004010000000000000000000000000000FB
:1001000000000000000000000000000000000000EF
:1001100012111000000000000000000000000000AC
:100120000000000000000000000000002200250088
:1001300028002B002E0031003400020100000501D0
:1001400008010B0100002100240027002A002D00D7
:100150003000330001010000040107010A01050518
:100160000505070508080808020202020A0A08082D
:10017000040404040101010101010101030303035B
:1001800003030303040707070C0C0C0C0C0C0C0CEA
:100190000202020206060606060606060B0B0B0BFB
:1001A0000B0B0B0B01021020200808102040102020
:1001B000408002010201080402010102040810202B
:1001C0004080804020100804020180040201804029
:1001D0002010080402010804020101020408102092
:1001E00040800102040810204080690511241FBED0
:1001F000CFEFD1E2DEBFCDBF00E00CBF12E0A0E048
:10020000B2E0E4E4FBE000E00BBF02C007900D9217
:10021000A030B107D9F722E0A0E0B2E001C01D9202
:10022000A43CB207E1F710E0C6EFD0E000E005C063
:1002300021970109802FFE017BD4C53FD10780E0C3
:100240000807B1F778D27CC4DBCE80917B00877F32
:1002500080937B0080E480937C0080917A008064AE
:1002600080937A0080917A0086FDFCCF809178009F
:1002700090917900089590E0FC01EC55FE4F249197
:10028000825A9E4FFC018491882399F090E0880F58
:10029000991FFC01EC5BFE4FA591B491FC01E65D5A
:1002A000FE4F859194918FB7F894EC91E22BEC93EB
:1002B0008FBF0895282F30E0F901EC51FF4F949142
:1002C000F901EC55FE4F4491225A3E4FF901249119
:1002D000222309F434C0992309F191509231F0F4AA
:1002E000E92FF0E08827E958FE4F8F4F21C4A8017D
:1002F000AC018901A001A4018E01AF01B501B901D2
:10030000BF01C301C701CD01D1018E01D501DB01C0
:10031000DF01809180008F7780938000E22FF0E0F2
:10032000EE0FFF1FE65DFE4FA591B4918FB7F894D5
:10033000EC91611148C040954E234C938FBF0895B6
:10034000809180008F7DE8CF80918000877FE4CF0F
:1003500084B58F7784BDE2CF84B58F7DFBCF80914C
:10036000B0008F778093B000D9CF8091B0008F7D9F
:10037000F9CF809190008F7780939000CFCF8091BC
:1003800090008F7DF9CF80919000877FF5CF80918D
:10039000A0008F778093A000C1CF8091A0008F7DB7
:1003A000F9CF8091A000877FF5CF809120018F77D2
:1003B00080932001B3CF809120018F7DF9CF809170
:1003C0002001877FF5CF4E2BB8CFAF92BF92CF924F
:1003D000DF92EF92FF920F931F93CF93DF936B0106
:1003E0007A01EC01CF5FDD4F28813CE0389F80012E
:1003F000399F100D1124A0900002B12C27FF1FC0BF
:10040000FB011182108288818F5F88838881980127
:10041000280F311D87FD3A95F6012A153B051CF47E
:1004200088818C30BCF180819181049680349C4914
:1004300008F471C0F6018081918104966EC08881B4
:100440009801280F311D87FD3A952A153B05DCF6EA
:100450008881A801480F511D87FD5A95FA01EE0FBA
:10046000FF1FE40FF51FE65FFD4F808186FFCBCFB6
:100470008881F801E80FF11D87FDFA95CF01EE0F95
:10048000FF1FE80FF91FE65FFD4F808160E08F736B
:1004900011DFB9CF808191812881A801420F511DC0
:1004A00027FD5A959A01FA01EE0FFF1FE20FF31F85
:1004B000E65FFD4F21813281820F931FF701918307
:1004C000808388819801280F311D87FD3A95F901B5
:1004D000EE0FFF1FE20FF31FE65FFD4F808186FFE7
:1004E00021C08881080F111D87FD1A95F801EE0FB4
:1004F000FF1FE00FF11FE65FFD4F808161E08F730A
:10050000DF91CF911F910F91FF90EF90DF90CF90EF
:10051000BF90AF90CFCE80E49CE9F70191838083B8
:100520008FEF8883DF91CF911F910F91FF90EF9014
:10053000DF90CF90BF90AF9008951F920F920FB6AB
:100540000F9211242F933F938F939F93AF93BF9359
:1005500080919A0290919B02A0919C02B0919D0281
:100560003091090223E0230F2D3758F50196A11D84
:10057000B11D2093090280939A0290939B02A0934D
:100580009C02B0939D028091050290910602A09179
:100590000702B09108020196A11DB11D80930502CA
:1005A00090930602A0930702B0930802BF91AF9107
:1005B0009F918F913F912F910F900FBE0F901F90A1
:1005C000189526E8230F0296A11DB11DD2CF1F92C8
:1005D0000F920FB60F9211240BB60F922F933F93E9
:1005E0004F935F936F937F938F939F93AF93BF933B
:1005F000EF93FF9348E251E064E271E090E080E025
:10060000E4DEFF91EF91BF91AF919F918F917F9128
:100610006F915F914F913F912F910F900BBE0F9073
:100620000FBE0F901F9018951F920F920FB60F924A
:1006300011240BB60F922F933F934F935F936F93B9
:100640007F938F939F93AF93BF93EF93FF9348EA6A
:1006500050E064EA70E083E090E0B7DEFF91EF9154
:10066000BF91AF919F918F917F916F915F914F91CA
:100670003F912F910F900BBE0F900FBE0F901F90C8
:1006800018951F920F920FB60F9211240BB60F926E
:100690002F933F934F935F936F937F938F939F938A
:1006A000AF93BF93EF93FF9348E950E064E970E0A4
:1006B00082E090E08ADEFF91EF91BF91AF919F9130
:1006C0008F917F916F915F914F913F912F910F90FB
:1006D0000BBE0F900FBE0F901F9018951F920F9298
:1006E0000FB60F9211240BB60F922F933F934F9397
:1006F0005F936F937F938F939F93AF93BF93EF938A
:10070000FF9348E850E064E870E081E090E05DDE4F
:10071000FF91EF91BF91AF919F918F917F916F91D9
:100720005F914F913F912F910F900BBE0F900FBE95
:100730000F901F901895789484B5826084BD84B51D
:10074000816084BD85B5826085BD85B5816085BDCC
:1007500080916E00816080936E0010928100809184
:10076000810082608093810080918100816080930C
:100770008100809180008160809380008091B10031
:1007800084608093B1008091B00081608093B0005C
:1007900080919100826080939100809191008160AE
:1007A000809391008091900081608093900080916F
:1007B000A10082608093A1008091A100816080935C
:1007C000A1008091A00081608093A0008091210110
:1007D00082608093210180912101816080932101B9
:1007E0008091200181608093200180917A00846053
:1007F00080937A0080917A00826080937A00809161
:100800007A00816080937A0080917A00806880937A
:100810007A001092C10082E02EDD85E32CDD8DE0B0
:100820002ADD61E085E346DD61E08DE043DD82E0C5
:1008300022DD86E120DD54EF852E9924939408E88B
:1008400010E068E5E62E62E0F62E70E0C72E70E05C
:10085000D72EAA24A394B12C42E0742EF6DC140106
:10086000281A390AC101880F991F880F991F909380
:10087000C3028093C202C4EAD2E03CE0632E8881C6
:10088000803308F04CC0862DF6DC8881282F30E0BC
:10089000F901EE0FFF1FE20FF31FE65FFD4F90819E
:1008A000907C262D2F73922B908319821A826CE0F4
:1008B00033D1869FF001112450E040E0BF01640F66
:1008C000751F9B01220F331F260F371FD901A65F0B
:1008D000BD4F9C9196FD16C04F5F5F4F4C30510548
:1008E00069F7813009F0B2C01092800070928100E7
:1008F0001092850010928400B19A80916F008260FE
:1009000080936F00E8818E2F90E0FC01EE0FFF1FB7
:10091000E80FF91FE65FFD4F8081806480832881A6
:10092000203388F54091C2025091C3028981280189
:10093000481A510887FD5394C201880F991F880FE8
:10094000991F481759077CF08A81B701681B710904
:1009500087FD7395CB01880F991F880F991F481742
:1009600059070CF4CA010297880F991F4FB7F894E2
:1009700030E0F901EE0FFF1FE20FF31FE65FFD4FBE
:10098000928381834FBF23966A9472E0671277CF78
:100990008091C2029091C302883E93400CF092C0B5
:1009A00060E085E387DC60E08DE084DC8091C2025A
:1009B0009091C302883E93400CF078C02FB7F89412
:1009C00080919A0290919B02A0919C02B0919D020D
:1009D0002FBF4091A0025091A1026091A20270919C
:1009E000A3021C012D01241A350A460A570AB20136
:1009F000A1014536510561057105D0F08093A00233
:100A00009093A102A093A202B093A30280919E02B0
:100A100090919F02892B09F043C0B0929F02A0924F
:100A20009E0261E086E146DC60919E0282E042DC4B
:100A30000CDC2401481A590AC201880F991F880F3B
:100A4000991F9093C3028093C202B0CF823061F4A9
:100A50001092900080939100109295001092940053
:100A600088BB809371004ECF833061F41092A00058
:100A70007092A1001092A5001092A40079BA709211
:100A8000720040CF81113ECF10922001709221015F
:100A900010922501109224017ABA7092730032CF1D
:100AA00010929F0210929E0260E0BCCF61E085E34D
:100AB00001DC61E08DE0FEDB60E086E1FBDB60E015
:100AC00082E0F8DBC114D10409F4C8CE0E94000012
:100AD000C3CEE4EAF2E022EC32E04FEF68EB7BE0D9
:100AE000809100028033B0F491E0980F909300025F
:100AF000808390E0DC01AA0FBB1FA80FB91FA65F7F
:100B0000BD4F12967C936E93119733962E173F0725
:100B100039F708954083F9CF991B79E004C0991FF4
:100B2000961708F0961B881F7A95C9F78095089547
:100B3000EE0FFF1F881F8BBF0790F691E02D1994D1
:040B4000F894FFCF57
:00000001FF
