:1000000002C10000AAC700007DC7000050C7000061
:1000100023C70000F6C60000C9C600009CC6000049
:100020006FC6000020C100001EC100001CC10000FE
:100030001AC1000018C1000016C1000014C1000060
:1000400012C1000010C100000EC100000CC1000070
:100050000AC1000008C1000006C1000007C6000078
:1000600002C10000CDC50000A2C50000FCC0000018
:10007000FAC00000F8C00000F6C00000F4C00000A4
:10008000F2C00000F0C00000EEC00000ECC00000B4
:10009000EAC00000E8C00000E6C00000E4C00000C4
:1000A000E2C00000E0C00000DEC00000DCC00000D4
:1000B000DAC00000D8C00000D6C00000D4C00000E4
:1000C000D2C00000D0C00000CEC00000CCC00000F4
:1000D000CAC00000C8C00000C6C00000C4C0000004
:1000E000C2C00000000020002300260029002C00D0
:1000F0002F00320000010000030106010901000089
:100100002100240027002A002D00300033000101C7
:100110000000040107010A01000022002500280058
:100120002B002E00310034000201000005010801FF
:100130000B0105050505070508080808020202026B
:100140000A0A080804040404010101010101010173
:100150000303030303030303040707070C0C0C0C3E
:100160000C0C0C0C02020202060606060606060627
:100170000B0B0B0B0B0B0B0B0102102020080810B4
:100180002040102040800201020108040201010207
:1001900004081020408080402010080402018004E0
:1001A000020180402010080402010804020101023B
:1001B0000408102040800102040810204080000044
:1001C0000A0B02090C0D0E080703040100000000D1
:1001D000000000000000000000000000000000001F
:1001E00000000000000000000000121110000000DC
:1001F00000000000000000000000000000000000FF
:1002000000000000D80711241FBECFEFD1E2DEBFEF
:10021000CDBF00E00CBF12E0A0E0B2E0EAE6F3E1FF
:1002200000E00BBF02C007900D92A63CB107D9F7C2
:1002300023E0A6ECB2E001C01D92AB38B207E1F7B3
:1002400011E0C3E0D1E000E006C021970109802F52
:10025000FE010E94AB09C230D10780E00807A9F770
:10026000F0D60C94B309CCCEAF92BF92CF92DF926E
:10027000EF92FF920F931F93CF93DF936C017B015B
:100280008B01040F151FEB015E01AE18BF08C017EC
:10029000D10759F06991D601ED91FC910190F0815F
:1002A000E02DC6011995892B79F7C501DF91CF9112
:1002B0001F910F91FF90EF90DF90CF90BF90AF9084
:1002C0000895FC01538D448D252F30E0842F90E05C
:1002D000821B930B541710F0CF9608950197089541
:1002E000FC01918D828D981761F0A28DAE0FBF2F0A
:1002F000B11D5D968C91928D9F5F9F73928F90E060
:1003000008958FEF9FEF0895FC01918D828D9817CE
:1003100031F0828DE80FF11D858D90E008958FEF0B
:100320009FEF0895FC01918D228D892F90E0805CD4
:100330009F4F821B91098F739927089586ED92E054
:10034000F1DF21E0892B09F420E0822F0895FC01E0
:10035000A48DA80FB92FB11DA35ABF4F2C91848D26
:1003600090E001968F739927848FA689B7892C9383
:10037000A089B1898C91837080648C93938D848DD6
:10038000981306C00288F389E02D80818F7D8083D9
:100390000895EF92FF920F931F93CF93DF93EC0199
:1003A00081E0888F9B8D8C8D98131AC0E889F9891C
:1003B000808185FF15C09FB7F894EE89FF8960831F
:1003C000E889F98980818370806480839FBF81E0A0
:1003D00090E0DF91CF911F910F91FF90EF900895E2
:1003E000F62E0B8D10E00F5F1F4F0F731127E02EBD
:1003F0008C8D8E110BC00FB607FCFACFE889F989F6
:10040000808185FFF5CFCE01A2DFF2CFEB8DEC0F1F
:10041000FD2FF11DE35AFF4FF0829FB7F8940B8F29
:10042000EA89FB8980818062D0CFCF93DF93EC0192
:10043000888D8823B1F0AA89BB89E889F9898C91D4
:1004400085FD03C0808186FD0CC00FB607FCF7CF89
:100450008C9185FFF2CF808185FFEDCFCE0177DFD4
:10046000EACFDF91CF91089580E090E0892B21F0D1
:1004700065DF81110E94000080E090E0892B49F047
:1004800080E090E0892B29F00E94000081110E94F9
:10049000000080E090E0892B49F080E090E0892B1B
:1004A00029F00E94000081110E94000080E090E08D
:1004B000892B49F080E090E0892B29F00E94000010
:1004C00081110C94000008958150823108F059C0C8
:1004D000E82FF0E08827E159FD4F8F4F3CC78F028E
:1004E0009302810287028B02C10296029C02A00243
:1004F000A602AA02AE02B402B802C102BC02C20243
:10050000C602809180008F7780938000089580914B
:1005100080008F7DF9CF80918000877FF5CF84B5F3
:100520008F7784BD089584B58F7DFBCF8091B00017
:100530008F778093B00008958091B0008F7DF9CFC0
:10054000809190008F778093900008958091900023
:100550008F7DF9CF80919000877FF5CF8091A000AB
:100560008F778093A00008958091A0008F7DF9CFB0
:100570008091A000877FF5CF809120018F778093B5
:1005800020010895809120018F7DF9CF8091200175
:10059000877FF5CF1F93CF93DF93282F30E0F901AA
:1005A000E254FE4F8491F901E858FE4FD491F901CD
:1005B000EE5CFE4FC491CC23A1F0162F811184DF95
:1005C000EC2FF0E0EE0FFF1FE85EFE4FA591B49117
:1005D0008FB7F894EC91111108C0D095DE23DC930D
:1005E0008FBFDF91CF911F910895DE2BF8CFCF936E
:1005F000DF9390E0FC01E858FE4F24918E5C9E4F03
:10060000FC0184918823D1F090E0880F991FFC01B0
:10061000E250FF4FA591B491FC01E85EFE4FC591F9
:10062000D491623071F49FB7F8943C91822F8095F9
:1006300083238C93E8812E2B28839FBFDF91CF915A
:1006400008958FB7F894EC912E2B2C938FBFF6CF93
:100650003FB7F8948091D2029091D302A091D40236
:10066000B091D50226B5A89B05C02F3F19F0019681
:10067000A11DB11D3FBFBA2FA92F982F8827BC01FC
:10068000CD01620F711D811D911D42E0660F771F24
:10069000881F991F4A95D1F708958F929F92AF9224
:1006A000BF92CF92DF92EF92FF92D2DF4B015C01BB
:1006B00088EEC82E83E0D82EE12CF12CC9DF681912
:1006C00079098A099B09683E734081059105B0F359
:1006D00021E0C21AD108E108F10888EE880E83E013
:1006E000981EA11CB11CC114D104E104F10431F71E
:1006F000FF90EF90DF90CF90BF90AF909F908F9042
:1007000008950895089590E080E008950F931F9351
:10071000CF93DF93EC01219710E000E0C230D105C8
:1007200030F0CE01F3DF080F191F2297F7CFC80171
:100730000196DF91CF911F910F9108958F929F9213
:10074000AF92BF920F931F93CF93DF93CDB7DEB7D6
:10075000A1970FB6F894DEBF0FBECDBF19A24230ED
:1007600008F44AE08E010F5D1F4F842E912CB12CAE
:10077000A12CA5019401CDD5E62FB901CA01EA301B
:100780003CF5E05DD801EE938D01232B242B252B26
:1007900081F790E080E0109761F0FD01019000206A
:1007A000E9F73197AF014A1B5B0BBD0183E793E08B
:1007B0005BDDA1960FB6F894DEBF0FBECDBFDF9113
:1007C000CF911F910F91BF90AF909F908F90089500
:1007D000E95CD8CFFC0101900020E9F73197AF0127
:1007E000481B590BBC0183E793E03ECDCF93DF93C9
:1007F000EC0160E08E81CEDE61E08E81CBDE60E0D8
:100800008E81C8DE8BE891E00197F1F7DF91CF91FF
:100810000895CF92DF92EF92FF920F931F93CF93A1
:10082000DF936C017C0187E0E80EF11CD0E0C0E0B2
:10083000062F10E0B8010C2E02C0759567950A943A
:10084000E2F76170F70181917F01A4DE2196C43047
:10085000D10581F7C601DF91CF911F910F91FF90D4
:10086000EF90DF90CF90C2CFCF92DF92EF92FF92C6
:100870000F931F93CF93DF93EC01F62E642F8C819F
:1008800089DE8D818F3F11F060E084DE0F2D10E056
:100890008F8584FF23C06E0187E0C80ED11CF12C28
:1008A000E12CB8010E2C02C0759567950A94E2F709
:1008B0006170F60181916F016DDEFFEFEF1AFF0AA3
:1008C00088E0E816F10469F7CE01DF91CF911F911E
:1008D0000F91FF90EF90DF90CF9088CFB80184E028
:1008E000759567958A95E1F7CE0193DF6F2DCE015F
:1008F000DF91CF911F910F91FF90EF90DF90CF90FC
:1009000088CF40E0682F83E793E0AECF90918603D5
:10091000691710F06FEF690FE62FF0E0ED58FC4F0C
:100920009489890F8068EDCF81E0EBDF8BE39FE155
:100930000197F1F708958F929F92AF92BF92CF9255
:10094000DF92EF92FF920F931F93CF93DF9381E09B
:100950008093CC02C1E0D0E003ED11E09DE8E92EE8
:1009600091E0F92E27E4C22E21E0D22E8091CC0214
:10097000882309F469C08FB7F8948090CE029090D4
:10098000CF02A090D002B090D1028FBF8091C80258
:100990009091C902A091CA02B091CB02A501940125
:1009A000281B390B4A0B5B0BDA01C901853691050F
:1009B000A105B10500F1B8DF60E080E0A7DF8EE2BD
:1009C00092E008DF8092C8029092C902A092CA0207
:1009D000B092CB028091C6029091C702892B59F543
:1009E000D093C702C093C60261E086E1D3DD609177
:1009F000C60282E0CFDDF8018491F701A490F601F0
:100A0000B490BB20F1F081115FDDEB2DF0E0EE0F33
:100A1000FF1FEC51FF4FA591B4918C91A82231E0BA
:100A200020E009F430E0832F922FF1E08F278170CE
:100A30008093CC029BCF1092C7021092C60260E056
:100A4000D4CF90E080E0F1CF60E086E1A3DD60E00C
:100A500082E0A0DD69DF60E080E058DF8CE392E0B7
:100A6000B9DE61E080E052DF8DE492E0DF91CF916A
:100A70001F910F91FF90EF90DF90CF90BF90AF90BC
:100A80009F908F90A7CECF93DF93823029F49091DF
:100A90008203986090938203809386031092870369
:100AA00080E48093880380E18093890380E58093CC
:100AB0008A0361E0809177039ADD809178038F3F0C
:100AC00011F061E094DD61E08091790390DDC3E78E
:100AD000D3E09E01235733408091820384FD0AC0F6
:100AE00084E090E02196281739073CF461E08E817C
:100AF0007EDDEFCF88E090E0F5CF8BE39DE00197BE
:100B0000F1F760E08091770345DD60E08091790343
:100B100041DD809178038F3F11F060E03BDD8091F3
:100B2000820384FD2CC063E083E793E072DECBE4B4
:100B3000D6E4CE010197F1F763E083E793E069DE45
:100B40002197F1F763E083E793E063DE83E592E0CA
:100B50000197F1F762E083E793E05BDE8091820327
:100B60008062CFDE84E0809383038CE0CADEDCDE2B
:100B700082E08093840386E0DF91CF91C2CE8062D1
:100B8000C0DE8BE496E40197F1F7809182038062E6
:100B9000B8DE83E592E00197F1F7809182038062ED
:100BA000B0DEDCCF41E060DE81E090E008951F928E
:100BB0000F920FB60F9211240BB60F922F933F9303
:100BC0004F935F936F937F938F939F93AF93BF9355
:100BD000EF93FF9386ED92E0BADBFF91EF91BF9127
:100BE000AF919F918F917F916F915F914F913F91C5
:100BF0002F910F900BBE0F900FBE0F901F90189566
:100C00001F920F920FB60F9211240BB60F922F93D3
:100C10008F939F93EF93FF93E091E602F091E702A9
:100C20008081E091EC02F091ED0282FD1DC0908187
:100C30008091EF028F5F8F732091F002821741F055
:100C4000E091EF02F0E0EA52FD4F958F8093EF02C2
:100C5000FF91EF919F918F912F910F900BBE0F906D
:100C60000FBE0F901F9018958081F2CF1F920F92A8
:100C70000FB60F9211242F933F938F939F93AF93AF
:100C8000BF938091CE029091CF02A091D002B091FB
:100C9000D1023091CD0223E0230F2D3758F5019674
:100CA000A11DB11D2093CD028093CE029093CF025F
:100CB000A093D002B093D1028091D2029091D3023E
:100CC000A091D402B091D5020196A11DB11D8093CF
:100CD000D2029093D302A093D402B093D502BF91D5
:100CE000AF919F918F913F912F910F900FBE0F90D9
:100CF0001F90189526E8230F0296A11DB11DD2CF93
:100D00001F920F920FB60F9211240BB60F922F93D2
:100D10003F934F935F936F937F938F939F93AF9383
:100D2000BF93EF93FF93E0910E02F0910F0219959C
:100D3000FF91EF91BF91AF919F918F917F916F91B3
:100D40005F914F913F912F910F900BBE0F900FBE6F
:100D50000F901F9018951F920F920FB60F921124AB
:100D60000BB60F922F933F934F935F936F937F93A5
:100D70008F939F93AF93BF93EF93FF93E0910C02F8
:100D8000F0910D021995FF91EF91BF91AF919F9155
:100D90008F917F916F915F914F913F912F910F9024
:100DA0000BBE0F900FBE0F901F9018951F920F92C1
:100DB0000FB60F9211240BB60F922F933F934F93C0
:100DC0005F936F937F938F939F93AF93BF93EF93B3
:100DD000FF93E0910202F09103021995FF91EF91C8
:100DE000BF91AF919F918F917F916F915F914F9143
:100DF0003F912F910F900BBE0F900FBE0F901F9041
:100E000018951F920F920FB60F9211240BB60F92E6
:100E10002F933F934F935F936F937F938F939F9302
:100E2000AF93BF93EF93FF93E0910002F091010223
:100E30001995FF91EF91BF91AF919F918F917F9104
:100E40006F915F914F913F912F910F900BBE0F903B
:100E50000FBE0F901F9018951F920F920FB60F9212
:100E600011240BB60F922F933F934F935F936F9381
:100E70007F938F939F93AF93BF93EF93FF93E091F3
:100E80000A02F0910B021995FF91EF91BF91AF917A
:100E90009F918F917F916F915F914F913F912F9192
:100EA0000F900BBE0F900FBE0F901F9018951F92C2
:100EB0000F920FB60F9211240BB60F922F933F9300
:100EC0004F935F936F937F938F939F93AF93BF9352
:100ED000EF93FF93E0910802F09109021995FF91B9
:100EE000EF91BF91AF919F918F917F916F915F91A2
:100EF0004F913F912F910F900BBE0F900FBE0F900F
:100F00001F9018951F920F920FB60F9211240BB6D7
:100F10000F922F933F934F935F936F937F938F9392
:100F20009F93AF93BF93EF93FF93E0910602F091ED
:100F300007021995FF91EF91BF91AF919F918F910A
:100F40007F916F915F914F913F912F910F900BBEC9
:100F50000F900FBE0F901F9018951F920F920FB613
:100F60000F9211240BB60F922F933F934F935F93E1
:100F70006F937F938F939F93AF93BF93EF93FF9361
:100F8000E0910402F09105021995FF91EF91BF9154
:100F9000AF919F918F917F916F915F914F913F9111
:100FA0002F910F900BBE0F900FBE0F901F901895B2
:100FB000E6EDF2E01382128288EE93E0A0E0B0E06A
:100FC00084839583A683B78384E192E091838083B1
:100FD00085EC90E09587848784EC90E097878687FE
:100FE00080EC90E0918B808B81EC90E0938B828BF6
:100FF00082EC90E0958B848B86EC90E0978B868BCF
:10100000118E128E138E148EE3E7F3E01382128298
:1010100086E292E09183808380E284838FEF8583F0
:1010200082E2868388E2878389E280878AE28187F9
:101030008BE282871386148615861686178681E0D2
:1010400022CD789484B5826084BD84B5816084BDEE
:1010500085B5826085BD85B5816085BD80916E0056
:10106000816080936E001092810080918100826087
:1010700080938100809181008160809381008091C4
:1010800080008160809380008091B10084608093B3
:10109000B1008091B00081608093B0008091910098
:1010A0008260809391008091910081608093910093
:1010B000809190008160809390008091A100826077
:1010C0008093A1008091A10081608093A100809114
:1010D000A00081608093A0008091210182608093B4
:1010E0002101809121018160809321018091200163
:1010F00081608093200180917A00846080937A00DF
:1011000080917A00826080937A0080917A00816079
:1011100080937A0080917A00806880937A001092A0
:10112000C100E091E602F091E70282E08083E09165
:10113000E202F091E3021082E091E402F091E50214
:101140008FEC80831092EE02E091EA02F091EB02C4
:1011500086E08083E091E802F091E902808180617D
:101160008083E091E802F091E902808188608083C9
:10117000E091E802F091E902808180688083E0914B
:10118000E802F091E90280818F7D808382E07BDC40
:10119000CBDB60E080E0BADB8CE392E01BDB61E05C
:1011A00080E0B4DB8DE492E015DB62E085E11FDADC
:1011B00061E082E01CDA61E086E119DA8BE994E013
:1011C0009093050280930402809169008C7F826075
:1011D00080936900E89A86ED92E0A4D8892B09F4FF
:1011E00070C086ED92E07CD8833519F59DDB61E017
:1011F00080E08CDB8EE592E0EDDA60E080E086DB7B
:1012000086ED92E08FD8892BD9F386ED92E068D8ED
:10121000833509F471C0833409F446C041E0682F76
:1012200083E793E021DB86ED92E07CD8892BD9F32C
:10123000ECCF893409F047C086ED92E073D8892B52
:10124000D9F386ED92E04CD861DA682F86ED92E012
:10125000A0D886ED92E066D8892BD9F386ED92E08E
:101260003FD86C0161DB60E080E050DB8FE692E00C
:10127000B1DA61E087E04ADB0D2C000CEE08FF08D4
:101280004AE0C701B601F7FE0DC041E06DE283E719
:1012900093E0EADA66277727CB016C197D098E097E
:1012A0009F094AE04BDAF9D93FDB60E080E02EDBB2
:1012B0008CE392E08FDA61E080E028DB8DE492E05D
:1012C00089DAD2D888CF843471F42EDB60E080E0F4
:1012D0001DDB80E892E07EDA61E087E017DB81E9E0
:1012E00092E078DAE0CF853461F71EDB60E080E0E1
:1012F0000DDB83E992E0F5CF17DB60E080E006DBF1
:1013000084EA92E067DA61E080E000DB85EB92E05E
:10131000D7CFA1E21A2EAA1BBB1BFD010DC0AA1F2D
:10132000BB1FEE1FFF1FA217B307E407F50720F04E
:10133000A21BB30BE40BF50B661F771F881F991FC9
:101340001A9469F760957095809590959B01AC0112
:10135000BD01CF010895EE0FFF1F881F8BBF0790BF
:0A136000F691E02D1994F894FFCFE8
:10136A008103810381038103810381038103810353
:10137A0000000000C90134016101150292017001E7
:10138A00840100000000D205340183038203202077
:10139A00205741524E494E472121210020706C6549
:1013AA0061736520656E74657220612000202020BB
:1013BA0020206E756D6265722020202020002A2070
:1013CA00434F4E4649524D20232045584954002048
:1013DA0054686520616E73776572206973202000F6
:1013EA002074686520616E737765722069732020A6
:1013FA00003100202057726F6E6720496E70757435
:10140A002020200020706C65617365207761697403
:10141A00206120200020202020206D6F6D656E74D1
:06142A002020202020001C
:00000001FF
